:020000040800F2
:1000000000000220DD020008D9020008CD490008E6
:10001000D9020008D9020008D90200080000000037
:10002000000000000000000000000000D9020008ED
:10003000D902000800000000D9020008BD490008EC
:10004000D9020008D9020008D9020008D902000824
:10005000D9020008D9020008D9020008D902000814
:10006000D9020008D9020008D90200081546000884
:1000700021460008812600082D4600083946000860
:10008000D9020008212E0008D9020008D902000870
:10009000D9020008D9020008D9020008D9020008D4
:1000A000D9020008D9020008D9020008D9020008C4
:1000B000D9020008D9020008D9020008552E00080C
:1000C000D9020008612E0008D902000825C20008E4
:1000D000D9020008D9020008D9020008D902000894
:1000E000D9020008D902000800000000D902000867
:1000F000D9020008D9020008D902000831C200085C
:10010000D9020008D9020008D9020008D902000863
:10011000D9020008D9020008D9020008D902000853
:10012000D9020008D9020008D9020008D902000843
:10013000D9020008D9020008D9020008D902000833
:1001400000000000000000000000000000000000AF
:10015000D9020008D9020008D9020008D902000813
:100160006D2E0008D9020008D9020008D902000843
:10017000D9020008D9020008D9020008D9020008F3
:10018000D9020008D9020008D9020008D9020008E3
:10019000D9020008D9020008D9020008D9020008D3
:1001A000D9020008D9020008D9020008D9020008C3
:1001B00035430008D9020008D9020008D902000816
:1001C000D9020008D9020008D9020008D9020008A3
:1001D000D9020008D9020008D9020008D902000893
:1001E000D9020008D9020008D9020008D902000883
:1001F000D9020008D9020008D9020008D902000873
:10020000D9020008D9020008D9020008D902000862
:10021000D9020008D9020008D9020008D902000852
:10022000D9020008D9020008D90200080000000025
:10023000D9020008D902000800000000D902000815
:10024000D9020008D9020008D9020008D902000822
:10025000D9020008D9020008D9020008D902000812
:10026000D9020008D9020008D9020008D902000802
:10027000D9020008D9020008D902000800000000D5
:10028000D9020008D9020008D902000800000000C5
:0802900000000000D902000883
:1002980010B5054C237833B9044B13B10448AFF3B8
:1002A80000800123237010BD6001002400000000BD
:1002B80038DB000808B5034B1BB103490348AFF30B
:1002C800008008BD000000006401002438DB00083D
:1002D800FEE700BF0B480C4A904203D0121A0B49A4
:1002E8000DF01EFA0A480B4A904203D0121A002158
:1002F8000DF024FA04F0F2FC0DF0EEF900F064F8C9
:10030800FEE700BF00000024600100245CDB000859
:1003180060010024901C0024704700BF704700BF94
:100328002DE9F047234F0446DFF88C900D463846F8
:10033800164600F053F9384600F060F999F80000C5
:1003480097F845A1DFF87480BAF17F0F08BF80F0F5
:100358000100DFF86CE098F8001089F8000097F8C1
:1003680055019EF800207F2808BF81F00101DFF8C1
:1003780054C088F8001097F865119CF800307F2960
:1003880008BF82F001028EF8002097F875217F2AB5
:1003980008BF83F001038CF800304EB1204629468F
:1003A80004EB860250F8043B904241F8043BF9D133
:1003B800BDE8F087C40100247C0100247D010024ED
:1003C800AC080024C0010024F8B5284800F052FD0C
:1003D8000021264800F0ECFD0021254800F0E4FC4F
:1003E800244A2548A2F11001244F03F0E5FD2449D1
:1003F800244B1022204803F0DBFD1D4800F0EAF8EA
:1004080021491B48214E224D224C00F0E1F80621DB
:10041800174800F09BF8164800F000F93B780021D7
:10042800134800EE103AB8EE400A00F091FA33781B
:1004380001210F4800EE103AB8EE400A00F088FAA1
:100448002B7802210A4800EE103AB8EE400A00F074
:100458007FFA23780221064800EE103AB8EE400AE7
:1004680000F076FA024800F0AFF9D0E780010024E6
:10047800C401002410000090840100247C010024A1
:10048800000000909C080024290300087D01002436
:10049800AC080024C001002470B50F4800240F4E9A
:1004A8000F4D32460F494460846144620DF000F9F3
:1004B8000D494FF4007205F2D6406C60AC616C6275
:1004C800C5F8C0440DF02CF9324628460749BDE866
:1004D80070400DF0EDB800BF80010024000000243A
:1004E800C40100242103000854D70008250300088C
:1004F80010B5037D82B0044601335BB20375037DFA
:100508005BB2012B03DDFF23037502B010BD037D31
:10051800826859B240FA83F3019001EB81110A44D1
:10052800197B094B41F040010093412302F0D6FEAC
:100538000028EAD0204602F0A7FE0146204602B075
:10054800BDE8104002F00ABEF904000800F0CCBC77
:10055800F8B5054600F1600400F590772DED028BA3
:10056800284600F0E5FC2046203401F075FDBC4229
:10057800F6D1B7EE008A05F170062C4628461034ED
:1005880000F0D6FCC8EE007AB442C4ED4E7AF5D13C
:1005980005F58C6405F59A66284600F0C9FC2346E3
:1005A8001C3483ED000AB442F6D1284600F0C0FCA2
:1005B800384601F051FD284600F0BAFCB7EE007A43
:1005C800BDEC028BC7EE007AC5ED127AF8BD00BF0C
:1005D80000F08EBC1C3001F0E3BF00BF38B500F15D
:1005E800600400F590752046203401F011FDAC42FE
:1005F800F9D12046BDE8384001F00ABD38B500F50C
:10060800A07400F5D875403001F064FD2046103420
:1006180001F0AEFDAC42F9D138BD00BF2DE9F04F75
:1006280089B08446D0F8C44404270DF10F060DF1B3
:1006380007050DF117090DF11808B24640F6FE7EC0
:1006480001965E4B04AEBCF8D6B493E8030002AB47
:10065800F34583E8030015F8012F4FEA221102F051
:100668000F0301EB811117FB03132344B3F8012097
:10067800C2F30B020BEB020188BF42F48052C1F3B4
:100688000B01A3F80120A3F803104D49019B03C9EE
:1006980086E803004B4913F8012F03C9019302F0C0
:1006A8000F0388E803001011BCF8D61400EB801083
:1006B800714517FB03032344B3F80120C2F30B026F
:1006C80001EB020088BF42F48052C0F30B00A3F88C
:1006D8000120A3F8030019F8013FBCF8D6141A1139
:1006E80003F00F03714502EB821202EB83032344EC
:1006F800B3F80120C2F30B0201EB020042F4805B65
:10070800C0F30B00A3F8030052D9AA45A3F801B01F
:1007180097D1B4F83D2040F6FE70BCF8D614C2F369
:100728000B028B18C3F30B03A4F83F3040F6FE739B
:100738009942B4F8663088BF42F48052C3F30B0381
:10074800A4F83D20BCF8D6145A18C2F30B02A4F83A
:10075800682040F6FE729142B4F86A2088BF43F4DC
:100768008053C2F30B02A4F86630BCF8D6148B1879
:10077800C3F30B03A4F86C3040F6FE739942B4F847
:100788006E3088BF42F48052C3F30B03A4F86A208A
:10079800BCF8D6145A188142C2F30B0288BF43F43E
:1007A8008053A4F87020A4F86E3009B0BDE8F08F2B
:1007B800AA45A3F801207FF444AFAAE754D900085A
:1007C8007CD9000888D9000890F8D4341B06FBD5DA
:1007D800D0F8C424FF21D0F8C834C0F8C824C0F821
:1007E800C434B2F803C0A3F803C0B2F807C0A3F832
:1007F80007C0B2F80BC0A3F80BC0B2F80FC0A3F83B
:100808000FC0B2F813C0A3F813C0B2F817C0A3F80A
:1008180017C0B2F81BC0A3F81BC0B2F81FC0A3F8DA
:100828001FC0B2F823C0A3F823C0B2F827C0A3F8AA
:1008380027C0B2F82BC0A3F82BC0B2F82FC0A3F87A
:100848002FC0B2F833C0A3F833C0B2F837C0A3F84A
:1008580037C0B2F83BC0A3F83BC0B2F83FC0A3F81A
:100868003FC0B2F844C0A3F844C0B2F848C0A3F8E7
:1008780048C0B2F84CC0A3F84CC0B2F850C0A3F8B6
:1008880050C0B2F854C0A3F854C0B2F858C0A3F886
:1008980058C0B2F85CC0A3F85CC0B2F860C0A3F856
:1008A80060C0B2F864C0A3F864C0B2F868C0A3F826
:1008B80068C0B2F86CC0A3F86CC0B2F870C0A3F8F6
:1008C80070C0B2F874C0A3F874C0B2F878C0A3F8C6
:1008D80078C0B2F87CC0A3F87CC0B2F880C0A3F896
:1008E80080C080F8D41490F8D43401335BB280F817
:1008F800D43490F8D4345BB2012B02DD80F8D414E0
:10090800704730B590F8D41483B000F598640F4D53
:100918004BB240FA81F1019403EB831091F8CC14A7
:1009280041230095024441F04001204602F0D6FCE4
:1009380008B903B030BD204602F0A6FC01462046A7
:1009480003B0BDE8304002F009BC00BFF90400085C
:10095800DFED217A84B0214B20EE270A04AA039305
:100968001144B5EEC00A11F8042CF1EE10FA07D4C0
:10097800B4EEE70AF1EE10FA26DD4FF0FF0C01E0C5
:100988004FF0000C131102F00F01D0F8C42400EB53
:100998004C0C03EB8313BCF8D60440F6FE7C03EB47
:1009A800810360451344B3F80120C2F30B0200EB46
:1009B800020188BF42F48052C1F30B01A3F8012061
:1009C800A3F8031004B07047FCEEC07ACDED017AAD
:1009D8009DF804C0D6E700BF00007F430F191A1B1B
:1009E8002DE9F04387B000270446A94905A8A94E78
:1009F800059702F0B3FB059B06F18402A64904F5AE
:100A08009865C4F8C034FF23C4F8CC144FF0060E20
:100A18003946C4F8C824C4F8C46484F8D43401E05E
:100A2800D4F8C4640A1101F00F008B00013102EB05
:100A380082129BB2202906F802E002EB8000D4F86B
:100A4800C474D4F8C86407EB000CACF80130ACF8F7
:100A5800033006F802E0D4F8C8240244A2F80130B2
:100A6800A2F80330DCD194F8CE340B2B0FD0B4F8B5
:100A7800CE24012304F59A60A4F8D024A4F8D23433
:100A8800039001F0A5FE0021039801F08BFF04F20A
:100A9800CC4704F2CE494FF0000817F8011B012695
:100AA800022304AA41F04001284600960391ADF8BC
:100AB800108002F0EBFB142003F086FF022304AA47
:100AC800039928460096ADF8108002F0DFFB142049
:100AD80003F07AFF4FF4005202230399ADF8102077
:100AE800284604AA009602F0D1FB142003F06CFFFC
:100AF800052343F20162039900932846ADF81020BC
:100B0800022304AA02F0C2FBB945C6D12046FFF76A
:100B180085FD94F8D4341B06FBD5D4F8C424D4F846
:100B2800C834C4F8C824C4F8C434B2F80310A3F80D
:100B38000310B2F80710A3F80710B2F80B10A3F8C7
:100B48000B10B2F80F10A3F80F10B2F81310A3F897
:100B58001310B2F81710A3F81710B2F81B10A3F867
:100B68001B10B2F81F10A3F81F10B2F82310A3F837
:100B78002310B2F82710A3F82710B2F82B10A3F807
:100B88002B10B2F82F10A3F82F10B2F83310A3F8D7
:100B98003310B2F83710A3F83710B2F83B10A3F8A7
:100BA8003B10B2F83F10A3F83F10B2F84410A3F876
:100BB8004410B2F84810A3F84810B2F84C10A3F843
:100BC8004C10B2F85010A3F85010B2F85410A3F813
:100BD8005410B2F85810A3F85810B2F85C10A3F8E3
:100BE8005C10B2F86010A3F86010B2F86410A3F8B3
:100BF8006410B2F86810A3F86810B2F86C10A3F883
:100C08006C10B2F87010A3F87010B2F87410A3F852
:100C18007410B2F87810A3F87810B2F87C10A3F822
:100C28007C10B2F88010A3F88010FF2184F8D41447
:100C380094F8D43401335BB284F8D43494F8D434BF
:100C48005BB2012B04DD84F8D41407B0BDE8F0834F
:100C580094F8D41401954BB244FA81F10F4C03EB8C
:100C6800831091F8CC1441230094024441F04001D0
:100C7800284602F033FB0028E7D0284602F004FBA0
:100C88000146284602F06AFA07B0BDE8F08300BFC3
:100C98009CD900080000003000010B00F90400088E
:100CA800F0B50646A9B01020002400F007F9034665
:100CB8000AA806F11C07ADF80C3006F16005039987
:100CC80001F07CFA132000F0F9F803460DF1390021
:100CD800ADF81030049901F071FA112000F0EEF827
:100CE80003460DF14A00ADF81430059901F066FA93
:100CF800142000F0E3F803460DF15B00ADF818305E
:100D0800069901F05BFA122000F0D8F803461BA8F8
:100D1800ADF81C30079901F051FA152000F0CEF813
:100D280003460DF17D00ADF82030089901F046FA30
:100D38000F2000F0C3F803460DF18E00ADF8243003
:100D4800099901F03BFA042307220AA9384601F061
:100D580043FAE1B2384601F039FC01463046013425
:100D6800019100F0E5F800232846DFED0E0A203552
:100D780001991A4601F02EF9062CEAD12146384687
:100D880001F024FC01463046019100F0D1F800231F
:100D9800DFED040A019906F590701A4601F01AF978
:100DA80029B0F0BD6F12033BF0B5064689B001913A
:100DB80000F060F80199304600F0FAF8264B0DF182
:100DC800170506F5A0740DF11E0793E803000B0C38
:100DD8000690ADF81C108DF81E3015F8010F00F0C4
:100DE8006DF803463046ADF8143000F0A1F82046FF
:100DF800059901F09FF9BD4204F11004EDD11C20C2
:100E080000F05CF803461B20ADF80C3000F056F8F3
:100E180003460E20ADF8103000F050F80346304677
:100E2800ADF8183000F084F8069B06F14000DDE9C3
:100E3800031201F029F93046FFF7D2FD3046FFF7DB
:100E48002FFF3046302100F057F8304609B0BDE892
:100E5800F040FFF77DBB00BF94D90008044B062281
:100E68001A7083F8412083F8842083F8C5207047DE
:100E78000000003005220F4901238270A2F1F922F7
:100E8800816040F20271A2F57A028382A0F82910EB
:100E9800C26040F6066280F82B30A0F82D2080F85A
:100EA8002F3010B44FF4E0640480034C04615DF803
:100EB800044B704705080509050A06061F2882B075
:100EC80009D8084B03EB400213F81030507843EA76
:100ED800002002B0704701230C2043EA002002B032
:100EE800704700BFB0D90008084603F06DBD00BFC9
:100EF800183001F051B800BF38B500F118050446A4
:100F08002DED028B284601F035F8284601F040F80F
:100F18002846B0EE408A01F029F8D0ED007AF8EEC4
:100F2800677A88EE277ABDEC028B84ED0F7A38BD9C
:100F380090ED0F0A704700BF30B5032491B001252A
:100F4800194900234FF44172089106A9ADF82420ED
:100F580002939FED137BCDE90A45144D044602A880
:100F68008DED0C7B8DED0E7BCDE9063503F0DCFBBA
:100F780040F601333025ADF80430019800F058F8F8
:100F880003214FF07E53029A04F118000593CDE92E
:100F9800035103A900F0B8FF11B030BDAFF30080D2
:100FA8000000000001000000040504060402040417
:100FB80030B504462DED028B83B099B3012240F27F
:100FC80001130092ADF80430694604F1340003F0CF
:100FD800C7FD04F10801201D04F1180502F024FFE3
:100FE800204600F047F804F1290001F0F1FB04F174
:100FF8002D0001F0EDFB2046FFF79EFF284600F08C
:10100800C7FF2846B0EE408A00F0B0FFD0ED007A66
:10101800F8EE677A88EE277A84ED0F7A03B0BDEC94
:10102800028B30BD40F201130091ADF80430CBE7DC
:1010380010B584B003460124ADF8040003A8ADF848
:101048000C30ADF80E4001F0C3FB214603A801F0B7
:10105800A9FC204603F0B8FC002103A801F0A2FC7B
:10106800204603F0B1FC214603A801F09BFC04B024
:1010780010BD00BFF0B53F4C8BB0A06303781BB127
:10108800002528460BB0F0BD0022079301233A49FA
:10109800201D61600321C4E9022308222023069150
:1010A8000A21C4E9042340224FF4C073089102A91D
:1010B800C4E9062300224FF40063C4E908234FF46F
:1010C80080520023C4E90A2302220723CDE9022320
:1010D80004220823CDE904230AF034FC054600283D
:1010E80044D1102301220126002702A90190201DC6
:1010F800CDE902234FF48052CDE904670AF04CFC95
:10110800642003F04FFF02A94FF48052201DCDE95F
:10111800046702261027CDE902670AF03DFC032286
:10112800102302A9201DCDE9022300230422CDE9C2
:1011380004234FF480520AF02FFC40F23223042299
:1011480002A901931023201DCDE90223019A01234E
:1011580005924FF4805204930AF01EFC40F60601F3
:10116800201D0AF039FC28460BB0F0BD01252846A1
:101178000BB0F0BDB8080024404100526A4A002371
:101188002DE9F04315688FB00A9315B10FB0BDE88B
:10119800F083664B01210C244FF0030811600026F0
:1011A800D3F8D4200327624842F48052DFF898919C
:1011B800C3F8D420D3F8D42002F480520092009AC5
:1011C800D3F8E02042F01002C3F8E020D3F8E02082
:1011D80002F010020192019AD3F8E02042F0400296
:1011E800C3F8E020D3F8E02002F040020292029A0D
:1011F800D3F8E02042F00802C3F8E020D3F8E0205A
:1012080002F008020392039AD3F8E02042F48072B5
:10121800C3F8E020D3F8E02002F480720492049A24
:10122800D3F8E02042F08002C3F8E020D3F8E020B1
:1012380002F080020592059AD3F8E02042F02002DD
:10124800C3F8E020D3F8E02002F020020692069AC4
:10125800D3F8E02042F00402C3F8E0204FF683728E
:10126800D3F8E0300C9403F00403CDF82C800793F6
:101278000223079908A9CDE9082305F019FD48F2CA
:101288003712022308A92B480C94CDE90823CDE98D
:101298000A6705F00DFD4CF20372022308A92648DF
:1012A8000C94CDE90823CDE90A6705F001FD40F269
:1012B800FF62022308A921480C94CDE90823CDE94F
:1012C8000A6705F0F5FC4FF60C72022308A91C48C2
:1012D8000C94CDE90823CDE90A6705F0E9FC4FF63F
:1012E8003F02022308A917480C94CDE90823CDE949
:1012F8000A6705F0DDFCD9F83800013003F030FD4D
:10130800D9F838300646581C03F032FD02230890FD
:1013180008A930460A950993CDE90B8405F0C8FC65
:101328000FB0BDE8F08300BFB008002400440258A5
:101338000010025800180258000C025800200258E9
:10134800001C025800140258B80800242DE9F04F78
:10135800DFF8108406460D46144608F114002DEDFA
:10136800028B89B000AF03F0D7FAD8F8143073B302
:10137800D8F81830D8F80490002B43690BBF4FF009
:10138800080A4FF0100A4FF0020B4FF0040BB9F1A6
:10139800000F2AD0A200EA46012B02F1070222F030
:1013A8000702ADEB020D6846ADEB020D694600F091
:1013B8003F81022B00F0D680002B6FD02246C84711
:1013C800D5462437BD46BDEC028BBDE8F08FD8F872
:1013D8001830002BF5D0D8F804904FF0080A4FF0D9
:1013E800020B4369B9F1000FD4D1FB61D8F8003082
:1013F800BB61002BE5D0D54803F0D6FA6B46BBF1AC
:10140800020F786108EE103AFB6900F083816A46A2
:101418005146A2EBC40295466200EA46B2FBFBF2D3
:10142800AAEBC40085460AEB8200EE46F861ADEBF4
:10143800010DF8690EEB820CC7F810C0EC46ADEB55
:10144800010D00EB8201CCF80400CCF8081001EB88
:1014580082013869E946CCF80C1000EB8201CCF81F
:1014680000A001EB8202C9E900E0C9E90212012BE0
:1014780000F06483022B00F06C82002B00F0808166
:10148800620849466046BB69984718EE103A243707
:101498009D46BD46BDEC028BBDE8F08F002C8DD07B
:1014A8001A46D8ED0B6A9FEDB27A8446331D36F999
:1014B80022E00CF1080C07EE90EA33F922E0023240
:1014C800F8EEE77A944267EE877A67EEA67A4CEDF3
:1014D800027A07EE90EAF8EEE77A67EE877A67EE27
:1014E800A67A4CED017AE2D8F9612246C847984EAF
:1014F800D8ED046A0020F9692B1D9FED9E7A9FEDB7
:101508009E6ADFED9E5A22E0F4EEC67AF1EE10FAFA
:10151800C0F2C88447F6FE72D1ED017A45F8202062
:1015280066EEA77AF4EEC77AF1EE10FA40F2F08090
:10153800F4EEC67AF1EE10FAC0F2D58447F6FE72E0
:1015480043F820200230083184427FF639AFD1EDCC
:10155800007A66EEA77AF4EEC77AF1EE10FAD3D8DD
:101568003246D9E7002C3FF429AFD8ED0B6A844600
:101578009FED787A0022331D8E4656F822100CF122
:10158800080C07EE901A53F822100232F8EEE77AA8
:10159800944267EE877A67EEA67A4CED027A07EEF8
:1015A800901AF8EEE77A67EE877A67EEA67A4CED3E
:1015B800017AE2D871462246C7F81CE0C847664E51
:1015C800D8ED046A0020F9692B1D9FED6A7A9FED1A
:1015D8006A6ADFF894C120E0F4EEC67AF1EE10FAF8
:1015E800C0F279843246D1ED017A45F8202066EEC2
:1015F800A77AF4EEC77AF1EE10FA40F28780F4EE9B
:10160800C67AF1EE10FAC0F25E84324643F8202022
:101618000230083184427FF6D3AED1ED007A66EE0F
:10162800A77AF4EEC77AF1EE10FAD5D86246DAE76F
:10163800002C3FF4C3AED8ED0B6A86469FED477A7F
:101648004FF0000C331D56F82C200EF1080E82F4D2
:101658000002A2F5000207EE902A53F82C200CF1A4
:10166800020CF8EEE77A82F400026445A2F5000263
:1016780067EE877A67EEA67A4EED027A07EE902A31
:10168800F8EEE77A67EE877A67EEA67A4EED017A8A
:10169800D9D8F9612246C847314ED8ED046A0020EE
:1016A800F9692B1D9FED337A9FED336ADFF8BCC0D3
:1016B8001FE0F4EEC67AF1EE10FAC0F2FC8332466F
:1016C800D1ED017A45F8202066EEA77AF4EEC77AC4
:1016D800F1EE10FA18D9F4EEC67AF1EE10FAC0F26B
:1016E800DA83324643F820200230083184427FF6FC
:1016F80067AED1ED007A66EEA77AF4EEC77AF1EE1E
:1017080010FAD6D86246DBE76246EBE762467DE729
:10171800324615E7A100D6466208073121F00701D5
:10172800ADEB010DEA46ADEB010D6946ADEB0E0DD3
:101738000AEB8200EC46ADEB0E0D01EB8202F8617C
:10174800E946CCE900A0C9E9001290E60C0900249A
:101758000280FFFF000000300082FF7F000000349D
:1017680082FF7F00F4080024007E00807E0080FF56
:101778000000003804FF7FBF04FF7F3F00FEFF46E4
:10178800002C00F0C982BBF1020FD8F8202000F02D
:10179800FA827969C7F8049002EB810E5FED0C5A62
:1017A8008A00DCF808100EF104007A611A46DCF8A9
:1017B8000C303B61331DD7F810903D61FD69C7E9D6
:1017C80002CB8C46834636F92210D8ED0B7A06EE0A
:1017D800101A33F9221006EE901A3EF92210B8EECC
:1017E800C66A07EE101AF8EEE66A3BF92210B8EE60
:1017F800C77A26EE256A66EEA56A27EE257A26EED2
:10180800276A66EEA76A27EE277A07EE901A51082C
:101818000232F8EEE77A0AEB8100944280ED006A22
:1018280005EB810067EEA57AC0ED006A0CEB81003C
:1018380009EB810180ED007A98ED0B7A67EE877AE3
:10184800C1ED007ABFD8D7F804903D69D7E902CB3B
:1018580060466208BB6949469847D8F828307A69D3
:10186800D8ED046A1A441FED3D7A1FED3D6A2B1D21
:10187800904602F1040A5FED3F5A0022A84ED9E9CA
:1018880000EC51E0F4EEC67AF1EE10FAC0F2C7822D
:1018980047F6FE7045F822000CEB0100D0ED007A07
:1018A80066EEA77AF4EEC77AF1EE10FA4BD9F4EEA9
:1018B800C67AF1EE10FAC0F2BA8247F6FE70BBF1B2
:1018C800020F43F822002BD0D9F808000844D0EDC5
:1018D800007A66EEA77AF4EEC77AF1EE10FA36D9F6
:1018E800F4EEC67AF1EE10FAC0F2CD8247F6FE7039
:1018F80048F82200D9F80C000144D1ED007A66EED0
:10190800A77AF4EEC77AF1EE10FA1ED9F4EEC67A89
:10191800F1EE10FAC0F2AF8247F6FE714AF82210D3
:10192800023294427FF6B1AD51080EEB8100890076
:10193800D0ED007A66EEA77AF4EEC77AF1EE10FAE7
:10194800A0D83046A6E73046B9E73146E6E7304644
:10195800CEE7002C00F0E081BBF1020FD8F8203070
:1019680000F0E1817A69DCF8081003EB820EC7F811
:1019780004909300DFED6B5A0EF1040000227B61A6
:10198800DCF80C303B61331DD7F810903D61FD69E0
:10199800C7E902CB8C46834656F82210D8ED0B7A5D
:1019A80007EE101A53F82210B8EEC76A07EE101A9D
:1019B8005EF82210F8EEC76A07EE101A26EE256ABE
:1019C8005BF82210B8EEC77A66EEA56A26EE276A9B
:1019D80027EE257A66EEA76A27EE277A07EE901A91
:1019E80051080232F8EEE77A0AEB8100944280ED62
:1019F800006A05EB810067EEA57AC0ED006A0CEB82
:101A0800810009EB810180ED007A98ED0B7A67EE91
:101A1800877AC1ED007ABFD8D7F804903D69D7E935
:101A280002CB60466208BB6949469847D8F8283017
:101A38007A69D8ED046A1A449FED3E7A9FED3E6AB2
:101A4800131D9246DFF8E4C00022FB612B1D364EC1
:101A5800D9E9008E4EE0F4EEC67AF1EE10FAC0F243
:101A6800FC81304645F822000EEB0100D0ED007AEB
:101A780066EEA77AF4EEC77AF1EE10FA49D9F4EED9
:101A8800C67AF1EE10FAC0F2EF813046BBF1020FD0
:101A980043F822002AD0D9F808000844D0ED007A8B
:101AA80066EEA77AF4EEC77AF1EE10FA35D9F4EEBD
:101AB800C67AF1EE10FAC0F2C98130464AF822001F
:101AC800D9F80C000144D1ED007A66EEA77AF4EE5D
:101AD800C77AF1EE10FA1ED9F4EEC67AF1EE10FAD2
:101AE800C0F2AD813146F86940F8221002329442C2
:101AF8007FF6CBAC510808EB81008900D0ED007A65
:101B080066EEA77AF4EEC77AF1EE10FAA3D860462B
:101B1800A8E76046BAE76146E5E76046CEE700BF5A
:101B28000280FFFF000000300082FF7F007E0080FF
:101B38000000003404FF7FBF04FF7F3F002C00F04B
:101B4800EB807A690021D8F82030C7F8109003EBB1
:101B5800820ED7F81C909300FD610EF104021FED70
:101B68000C6A7B61331D154656F821204808D8EDCC
:101B78000B6ABBF1020F82F40002A2F5000207EE25
:101B8800902A53F8212082F40002B8EEE77AA2F5F1
:101B9800000227EE067A07EE902A0AEB8002F8EE9A
:101BA800E77A27EE267A67EE867A82ED007A09EBE5
:101BB80080024FEA800067EEA67AC2ED007A27D04D
:101BC8005EF8212082F40002A2F5000207EE902AB6
:101BD80055F8212082F40002B8EEE77AA2F5000257
:101BE80027EE067A07EE902ADCF80820F8EEE77A66
:101BF800024427EE267A67EE867A82ED007A98ED1F
:101C08000B7ADCF80C2067EE877A0244C2ED007A82
:101C180002318C42A8D8D7F8109060466208BB6998
:101C28004946FD699847D8F828307A69D8ED046A9A
:101C38001A441FED407A1FED406A131D9246DFF8E3
:101C4800C4C20022FB612B1DAB4ED9E9008E4EE0C9
:101C5800F4EEC67AF1EE10FAC0F2C580304645F8C7
:101C680022000EEB0100D0ED007A66EEA77AF4EEC2
:101C7800C77AF1EE10FA49D9F4EEC67AF1EE10FA05
:101C8800C0F2BF803046BBF1020F43F822002AD0D1
:101C9800D9F808000844D0ED007A66EEA77AF4EE89
:101CA800C77AF1EE10FA35D9F4EEC67AF1EE10FAE9
:101CB800C0F2AE8030464AF82200D9F80C00014440
:101CC800D1ED007A66EEA77AF4EEC77AF1EE10FA53
:101CD8001ED9F4EEC67AF1EE10FAC0F28B803146C6
:101CE800F86940F82210023294427FF6CEAB5108D0
:101CF80008EB81008900D0ED007A66EEA77AF4EE51
:101D0800C77AF1EE10FAA3D86046A8E76046BAE7AA
:101D18006146E5E76046CEE7224649466046BB692C
:101D28009847FFF7B2BBC7F810B0002298ED0B6ACE
:101D3800331DDFED726AD7F81CB0786956F82210A7
:101D480007EE901A53F82210B8EEE77A07EE901AC9
:101D580051080232F8EEE77A27EE267A0AEB810E6E
:101D680094420BEB810167EEA67A27EE067A67EEBE
:101D7800867A8EED007AC1ED007ADFD88300D7F835
:101D880010B07B614DE61A46C7F810B098ED0B6AA3
:101D9800331DDFED5B6AD7F81CB0786936F922107D
:101DA80007EE101A33F9221007EE901AB8EEC77A28
:101DB80051080232F8EEE77A27EE267A0AEB810E0E
:101DC80094420BEB810167EEA67A27EE067A67EE5E
:101DD800867A8EED007AC1ED007ADFD88300D7F8D5
:101DE80010B07B6134E5F0EE675AFEEEE45A15EE6A
:101DF800900A34E7F0EE675AFEEEE45A15EE901AB0
:101E08006EE7F0EE675AFEEEE45A15EE900A3AE7EE
:101E1800F0EE675AFEEEE45A15EE900A4BE767EECD
:101E2800A57AFDEEE77A17EE900A00B232E567EE82
:101E3800A57AFDEEE77A17EE900A00B23FE5F0EEDC
:101E4800675AFEEEE05A15EE901A4CE6F0EE675A25
:101E5800FEEEE05A15EE900A30E6F0EE675AFEEE16
:101E6800E05A15EE900AFDE5F0EE675AFEEEE05AEC
:101E780015EE900A0AE667EEA57AFDEEE77A17EE08
:101E8800901A09B24AE567EEA57AFDEEE77A17EEF1
:101E9800900A00B22CE5F0EE675AFEEEE45A15EE11
:101EA800902A1FE467EEA57AFDEEE77A17EE902AEE
:101EB80012B2FFF731BBF0EE675AFEEEE45A15EEA8
:101EC800902AFFF7FDBBF0EE675AFEEEE05A15EEDA
:101ED800902AFFF79BBBF0EE675AFEEEE05A15EE2C
:101EE800902AFFF780BB67EEA57AFDEEE77A17EE3A
:101EF800902A12B2FFF724BB82FF7F000000003057
:101F0800000000387E0080FF30B5154C154685B0BE
:101F1800046004F1080C01AB07C98CE80700D4ED94
:101F2800047AF5EEC07A83E80700F1EE10FA14DDC2
:101F3800F7EE006A86EEA77A84ED0B7A6DB120463B
:101F480040F8145F02F0E8FC064903690020064ADD
:101F5800E1616262E36005B030BD012005B030BDCB
:101F6800F408002408210030080100300068083017
:101F7800704700BFB1F5807F03680A4628BF4FF459
:101F88008072B1F5807F9A6094BF0020012070476D
:101F98000068143002F0F6BC30B5046883B0084815
:101FA8000D46A368626AE1699B00009004F1140081
:101FB80002F0B4FC0020C4E9000503B030BD00BF46
:101FC80055130008024B0022C3E90522704700BFE1
:101FD800F4080024F6EE006A4FF0000C60EE207A58
:101FE8000160B7EE007A0021C0F80CC067EEA67A4F
:101FF80080ED020A80ED047AC0F814C0C7EE276AA3
:10200800027643768176C0ED070AC0ED016A704713
:102018000268037E128807EE902AFBEEC87A1BB18D
:10202800B7EE007A77EE677AD0ED056A90ED047A1C
:1020380077EEE67A437E67EE877A0BB1F1EE677A40
:1020480090ED030A90ED017A77EEC07AA7EE270AA1
:1020580080ED030A704700BF837E80ED020A73B9E2
:10206800D0ED077A27EE800AF6EE007AB7EE007A0E
:1020780020EE270AC7EE007AC0ED017A7047DFED3F
:10208800017AEFE76F12033B10B584B004461030B5
:10209800ADF804304FF48073ADF80820ADF80C109B
:1020A800828001806382E3828DED000A00F090FB5C
:1020B80004F1140000F08CFB9DED000A0199204604
:1020C80000F038F800224FF6FF73E261238304B072
:1020D80010BD00BF70B5067E04461030760000F0D3
:1020E80053FC657E034676B26D0004F114001E436E
:1020F8006DB2267600F048FC05432046657600F070
:1021080037F8237E002203F00303E261022B06D096
:10211800627E02F00302022A00D133B170BD637EF1
:102128009B07FBD10123E36170BD4FF0FF33E361EF
:1021380070BD00BFB7EE007A0346012282B0C1F33A
:1021480007204FF0000CC7EE007AADF80410C3F872
:102158000CC04FF0000C987098181A70597083F8DA
:1021680003C09A809A71C3ED027A02B000F030BBC6
:1021780038B54479054683790130640064B2B3B157
:1021880000F002FCB0FA80F35B092343DBB2A3F151
:102198007F026B71012A0ED9FF2B07D1D5ED037A87
:1021A80095ED027A77EE877AC5ED037A38BD00F0AF
:1021B800EBFB43B2E9E70023EB6038BD82B04FF098
:1021C800000C0323ADF80410BDF8042080F810C0FB
:1021D8000280438002B070472DE9F04FBE4E0025C3
:1021E8008FB0BE4C037006F140034260074601926F
:1021F8008846202229463046C4F85831C4F854612C
:10220800CDE90355CDE90555CDE90755CDE9095582
:10221800CDE90B550BF092FA2022294604F5997066
:10222800C4F82151C4F82551C4F82951C4F82D51D6
:102238000BF084FA019B84F8385284F820317A68CC
:10224800002A5FD02B464146B64604F5907599465C
:102258004FF0010A03EB0310D1F800B0D1F8048065
:102268000133D1F808C02218CE6844F800B0C2F88B
:102278000480C2F808C0D660087C2EF8029B10744F
:102288000A7C05F8012F002A69D07A68113184F890
:1022980038A29A42DED84FF4802291489DF8043043
:1022A80008214FF000084FF00009C4F874310023EA
:1022B800C4E957020122C4F8643184F87031C4E9D2
:1022C8005A2194F83812C4E9608981B3C4F8882186
:1022D800002284F8713184F878313B78C4E96322AC
:1022E800A3B3012200200121013B84F89421C4E911
:1022F8006801082B2CD8DFE803F0ABB0B5BABFC42F
:10230800C9CFD6009DF804300121C4F86421C4F86F
:1023180074314FF4802384F87021714AC4E957233B
:1023280008230022C4E95A130023C4E960230123C7
:10233800002284F87131002384F878310323C4F82B
:1023480088313B78C4E96322002BCAD184F89431E0
:10235800644803F05FFA034638B1FFBEFEE77A68C7
:1023680011319A423FF676AF95E703A95D4803938A
:1023780003F0AEFB0546002868D1022240F2FF7345
:10238800CDE9082300230422CDE90A2394F820315B
:10239800002B00F0D5804FF0060921E0022B00F059
:1023A8008980012B40F0C4809AF80130012B00F09D
:1023B800C180002B4C4B18BF002306A94948CDE922
:1023C800063902F053FE002840F0BF80013594F82A
:1023D8002031EDB2AB4240F2B380444B53F8259024
:1023E8002FB207EB071704EB070A504600F0F0F985
:1023F80005EB051323441B7C042B7DDC022B00F327
:10240800918000F08D806319002283F81021E35D2C
:10241800002BC3D19AF80130062B00F08580072BDA
:1024280000F08A80022B00F09680032B00F0958044
:10243800002B00F09680012B00F09180042B00F017
:102448009280052B2A4B18BF0023B6E7FFBEFEE794
:1024580003224023C4E966237AE707226023C4E9FC
:10246800662375E70F228023C4E9662370E71F22DD
:10247800A023C4E966236BE73F22C023C4E966238F
:1024880066E77F22E023C4E9662361E7FF224FF471
:102498008073C4E966235BE740F2FF124FF4907340
:1024A800C4E9662354E740F2FF324FF4A073C4E94D
:1024B80066234DE79AF80130042B37D0052B3DD021
:1024C800002B40D0012B42D0022B42D0032B094BCA
:1024D80018BF002371E700BF084100302809002415
:1024E80000200240840A00240002B025F0D9000828
:1024F8000000B84F0020903603233E1D04EB05086A
:102508004FF0000B264488F8103130460BF1010BD0
:1025180000F05EF998F8103104365B45F5DC76E793
:102528000123EAE70223E8E7104B46E7104B44E7AC
:10253800002342E70F4B40E70F4B3EE70F4B3CE7CA
:102548000FB0BDE8F08F0E4B37E7FFBEFEE70D4B2F
:1025580033E70D4B31E70D4B2FE70D4B2DE70D4BB7
:102568002BE70D4B29E70D4B27E700BF0800900C20
:102578001000C0102000F0148000501D00018021C0
:102588000004002A0008302E001060320040C03AD3
:102598000080F03E00005247000021430000844BB9
:1025A80038B5094C40F2FF724FF0011104F5AE75D1
:1025B800284603F03BFA94F82021D4F85411284611
:1025C800BDE8384002F0A6BF28090024034B0F29B4
:1025D800D3F8540198BF00EB410070472809002444
:1025E800214B02689A4200D07047204A00232048B5
:1025F800D2F8D81030B51F4C41F0200183B0C4F890
:10260800C001092004F5E075C4E971034FF4806046
:10261800C2F8D810D2F8D8204FF40061C4E973305A
:1026280094F8380202F02002C4F8D4114FF4005193
:10263800984201922846C4F8D811C4E97833019B1E
:1026480014BF00234FF48073C4F8DC3103F066FC38
:1026580008B1FFBEFEE704F5AE73C4F8A851C4F88C
:10266800F83103B030BD00BF0020024000440258DA
:102678004000024028090024014803F0C7BF00BFFA
:10268800E80A002402682DE9F84F4B4B9A4201D022
:10269800BDE8F88F494D95F83832002BF8D095F8F9
:1026A8002031002B77D0002405F10C0905F5997627
:1026B80005F59077A04613E003F0010117F811BC67
:1026C800A9F1080000F06EF9BBF1010F25D895F8C3
:1026D8002031013409F111090236A2B293422BD9F3
:1026E80017F8012F002AF4D0D5F854310021327898
:1026F80033F81400D5F8583103EB041323F812000B
:10270800338801339BB233805FFA83FA3A789A426E
:10271800D2D88A46A6F80080D0E7CAF34001A9F1CA
:10272800040000F03FF9BBF1020FCAF38001CED0DC
:10273800484600F037F9CAE7002395F838022049DF
:1027480009229842C5F8C8314FF48060C5F8C01115
:10275800C5F8C4214FF400614FF40052C5F8CC31DC
:1027680008BF4FF48073C5F8D821C5E97401002269
:102778001448C5E97732C5F8E42103F0CFFB08B166
:10278800FFBEFEE795F82021D5F854110E48BDE8A4
:10279800F84F02F0BFBE0A4909224FF48060C5F81D
:1027A800C831C5E970124FF400614FF40052C5E911
:1027B8007330C5E97512DAE70020024028090024C1
:1027C80040000240E80A0024840A0024704700BF41
:1027D80030B583788FB00446022B37D0032B33D023
:1027E800012B31D000230A93E378012B2AD0022B46
:1027F80028D000230B93002320460C9302F0B0FA54
:102808000546204602F0B4FA23780990082B13D81D
:10281800DFE803F01F3245586B7E91A40500594B41
:10282800D3F8E02042F48072C3F8E020D3F8E03017
:1028380003F480730893089B09A9284604F038FA22
:102848000FB030BD0B93D6E70A93CDE711230A9357
:10285800CAE74C4B09A92846D3F8E02042F0010208
:10286800C3F8E020D3F8E03003F001030093009BA5
:1028780004F01EFA0FB030BD424B09A92846D3F820
:10288800E02042F00202C3F8E020D3F8E03003F081
:1028980002030193019B04F00BFA0FB030BD394BD2
:1028A80009A92846D3F8E02042F00402C3F8E02042
:1028B800D3F8E03003F004030293029B04F0F8F924
:1028C8000FB030BD2F4B09A92846D3F8E02042F0BD
:1028D8000802C3F8E020D3F8E03003F008030393BC
:1028E800039B04F0E5F90FB030BD264B09A9284633
:1028F800D3F8E02042F01002C3F8E020D3F8E0302B
:1029080003F010030493049B04F0D2F90FB030BD18
:102918001C4B09A92846D3F8E02042F02002C3F84E
:10292800E020D3F8E03003F020030593059B04F082
:10293800BFF90FB030BD134B09A92846D3F8E020E2
:1029480042F04002C3F8E020D3F8E03003F040033F
:102958000693069B04F0ACF90FB030BD094B09A9EA
:102968002846D3F8E02042F08002C3F8E020D3F8EC
:10297800E03003F080030793079B04F099F90FB048
:1029880030BD00BF0044025838B5054602F0E8F9EA
:102998000446284602F0ECF901462046BDE83840D6
:1029A80004F08EBB70B506460D4602F0D9F9044610
:1029B800304602F0DDF92A1E0146204618BF0122E2
:1029C800BDE8704004F082BB2DE9F84F04460E467E
:1029D8001746984600F18C05284606F0A1F82028ED
:1029E800FAD120682E4B0128636106D0022843D013
:1029F80000283ED00120BDE8F88F2423A36140239E
:102A0800002004F11409E3614FF480632062A0639D
:102A18006362C4E90A00C4E90C00C4E9100048462E
:102A280003F07CFA08B1FFBEFEE7C4F8C490E56481
:102A3800EFF3108A72B6DFF8709094F900300A9AB2
:102A4800DFF868B089F80030CBF80020E3680B9A0B
:102A5800144C22609BB9710043463A46284689B215
:102A680004F0F8FD90B9BAF1000FC4D162B6BDE820
:102A7800F88F2223A361C2E74A23A361BFE7424636
:102A88003946284604F058FF0028ECD0FF230120DF
:102A980089F800300023CBF800302360E3E700BF5B
:102AA800A00002406C0B0024680B0024640B002477
:102AB8002DE9F84F04460E461746984600F18C0556
:102AC800284606F02DF82028FAD120682D4B012839
:102AD800636106D0022842D000283DD00120BDE81D
:102AE800F88F2323A36100204FF4806304F11409B5
:102AF800A0636362C4E90700C4E90A00C4E90C00E2
:102B0800C4E91000484603F009FA08B1FFBEFEE721
:102B1800C4F8C890E564EFF3108A72B6DFF86C90D9
:102B280094F900300A9ADFF868B089F80030CBF8D9
:102B38000020E3680B9A144C22609BB9710043464D
:102B48003A46284689B204F03FFE90B9BAF1000F20
:102B5800C5D162B6BDE8F88F2123A361C3E7492335
:102B6800A361C0E742463946284604F051FF0028D1
:102B7800ECD0FF23012089F800300023CBF8003087
:102B88002360E3E7A00002406C0B0024680B0024DC
:102B9800640B00240023122270B586B0CDE902230D
:102BA80004930368032B01D804230593061D841D91
:102BB800304602F0D5F80546304602F0D9F803460B
:102BC80001A92846019304F073F8204602F0C8F8DA
:102BD800034620461C4602F0CBF801A903462046CE
:102BE800019304F065F806B070BD00BF634A03683E
:102BF800934210B58CB028D0614A934258D0614AAC
:102C0800934200F09480604A934201D00CB010BD0A
:102C18005E4C5F48D4F8E03043F00203C4F8E0307B
:102C2800D4F8E03003F002030A930A9BFFF7B2FFDF
:102C3800D4F8F43043F08003C4F8F430D4F8F43016
:102C480003F080030B930B9BE0E7504C5148D4F8FA
:102C5800E03043F00203C4F8E030D4F8E03003F089
:102C680002030193019BFFF795FFD4F8E830002297
:102C78001F2043F400131146C4F8E830D4F8E830B4
:102C880003F400130293029BD4F8D83043F00103F5
:102C9800C4F8D830D4F8D83003F001030393039B69
:102CA80002F08AFF1F200CB0BDE8104002F0C2BF3E
:102CB800364C3948D4F8E03043F08003C4F8E030AB
:102CC800D4F8E03003F080030493049BD4F8E03098
:102CD80043F00203C4F8E030D4F8E03003F0020314
:102CE8000593059BFFF756FFD4F8E8300022212012
:102CF80043F480031146C4F8E830D4F8E83003F40C
:102D080080030693069BD4F8D83043F00103C4F837
:102D1800D830D4F8D83003F001030793079B02F0AA
:102D28004BFF21200CB0BDE8104002F083BF1B48C8
:102D3800FFF730FF154B00224820D3F8E840114632
:102D480044F40004C3F8E840D3F8E84004F400046D
:102D58000894089CD3F8D84044F00104C3F8D8403C
:102D6800D3F8D83003F001030993099B02F024FF3C
:102D780048200CB0BDE8104002F05CBF0054004091
:102D880000580040005C0040001C005800440258F5
:102D9800F80D0024700B0024480C0024200D00249A
:102DA8002DE9F0431A4B87B000254FF010099E46D5
:102DB800EC46184BFF22E04667461A700EF11806DB
:102DC8000EF13004CDE90055CDE90255ADF800907B
:102DD800BCE80F00CDE90455AEE80F009CE80300FD
:102DE8000095ADF800908EE80300B8E80F000FC614
:102DF8009CE803000095ADF8009086E803000FCF2B
:102E08000FC49CE8030084E8030007B0BDE8F08322
:102E180004000024680B002410B5EFF3108472B688
:102E2800084B1A78120602D504B962B610BD1B7891
:102E3800D82205485BB202FB0300143003F0E6FB1E
:102E4800F2E700BF680B0024700B0024014804F06F
:102E58004DBE00BFFC0B0024014804F047BE00BF74
:102E6800D40C0024014804F041BE00BFAC0D00247E
:102E78002DE9F04182B0EFF3108772B61C4AFF21AA
:102E88001C4C1368217023B1002111601A4A106884
:102E9800984723781B0617D5DFF864800025174E5E
:102EA800444662685AB16369304693B9236901930D
:102EB800E368009323892188FFF786FD90B10135E7
:102EC8001834D836032DECD107B962B602B0BDE884
:102ED800F081D4E90331CDE9003123892188FFF756
:102EE800E7FDEBE705EB450508EBC5056860EBE793
:102EF800640B0024680B00246C0B0024700B002466
:102F0800040000242DE9F04182B0EFF3108772B677
:102F18001C4AFF211C4C1368217023B10021116049
:102F28001A4A1068984723781B0617D5DFF864807B
:102F38000025174E444662685AB16369304693B912
:102F480023690193E368009323892188FFF73CFDF7
:102F580090B101351834D836032DECD107B962B6D3
:102F680002B0BDE8F081D4E90331CDE9003123890D
:102F78002188FFF79DFDEBE705EB450508EBC50547
:102F88006860EBE7640B0024680B00246C0B0024DA
:102F9800700B0024040000242DE9F04182B0EFF307
:102FA800108772B61C4AFF211C4C1368217023B18C
:102FB800002111601A4A1068984723781B0617D514
:102FC800DFF864800025174E444662685AB1636989
:102FD800304693B923690193E368009323892188D4
:102FE800FFF7F2FC90B101351834D836032DECD137
:102FF80007B962B602B0BDE8F081D4E90331CDE982
:10300800003123892188FFF753FDEBE705EB4505E0
:1030180008EBC5056860EBE7640B0024680B002427
:103028006C0B0024700B0024040000242DE9F041EF
:1030380082B0EFF3108772B61C4AFF211C4C13684C
:10304800217023B1002111601A4A1068984723782B
:103058001B0617D5DFF864800025174E44466268C2
:103068005AB16369304693B923690193E3680093C1
:1030780023892188FFF7A8FC90B101351834D83688
:10308800032DECD107B962B602B0BDE8F081D4E9EE
:103098000331CDE9003123892188FFF709FDEBE7EA
:1030A80005EB450508EBC5056860EBE7640B0024F4
:1030B800680B00246C0B0024700B0024040000240F
:1030C8002DE9F04182B0EFF3108772B604F0B4F83E
:1030D8001D4A1E4CFF21136821702BB1002111607D
:1030E80001211B4A1068984723781B0617D5DFF87B
:1030F80068800025174E444662685AB163693046B5
:1031080093B923690193E368009323892188FFF722
:103118005BFC90B101351834D836032DECD107B9D2
:1031280062B602B0BDE8F081D4E90331CDE90031DF
:1031380023892188FFF7BCFCEBE705EB450508EB85
:10314800C5056860EBE700BF640B0024680B00242A
:103158006C0B0024700B0024040000242DE9F043BC
:103168000F68D8243F4D85B007FB04F4032F05EB07
:103178000403036040DCCB680E46012B3CD84DD0DD
:103188004FF0D808B646DFF8FC9008FB0758BEE8B1
:103198000F00C446ACE80F00DEF800300DF1100E49
:1031A800CCF80030D8F808C099E80F000EE90F00F5
:1031B8000EEB8703BCF1010F53F8103CC8F88C30B4
:1031C80031D0BCF1020F42D0BCF1000F35D0317CB8
:1031D8008C34D823002201202C4403FB07534900D8
:1031E800C3E92602C3F894102046C3E92822C3E99C
:1031F8002A2204F021F818B1012005B0BDE8F083B7
:103208000146204605F090FC0028F5D101462046ED
:1032180005F0B4FC003818BF0120EEE70B7C103B2A
:10322800672BADD9E8E701F02DFD0F4B98420CBF95
:103238000E4B0F4BC8F89030C9E701F023FD0A4B3D
:1032480098420CBF0B4B0C4BC8F89030BFE701F00D
:1032580019FD054B98420CBF084B094BC8F8903034
:10326800B5E700BF700B0024000E27072D0FB03004
:103278003211D0205F4390608A62E030200BA010AA
:103288001A0980105CD90008006870472DE9F041E0
:10329800D0F8008082B00D4617461E4608F18C040F
:1032A800204605F03DFC2028FAD1D8F80C3073B937
:1032B8006D002046089C33463A46A9B2009404F0B3
:1032C80011F8003818BF012002B0BDE8F081089B52
:1032D80032463946204604F0D9F8F2E700682DE96D
:1032E800F0410468032CDDE9067821D0124D2D78D1
:1032F8002D0617D48E469C46EFF3108372B60F4DF9
:1033080004EB4404002025F8341005EBC404626083
:10331800A4F808C06061C4E903780BB962B618461E
:10332800BDE8F081CDE90678BDE8F041FFF74CBB78
:103338000120BDE8F08100BF680B002404000024D0
:10334800044B10221A7483F8E82083F8C02183F80C
:1033580098227047700B00242DE9F04F4FF08071D0
:10336800ABB000244FF48073012217910621054663
:103378008DF8074014930E92139422931C91259470
:1033880021942994CDE91544CDE91824CDE91A44AE
:10339800CDE92344CDE9274401F076FC022872D018
:1033A80005F1100441F288321CA9204605F084FD7D
:1033B80030B10123184685F85C302BB0BDE8F08F9A
:1033C800022202234FF0100A4FF0010B05274FF09D
:1033D80080764FF000084FF480091CA920461C97FE
:1033E8002596CDE9082341F2883308AACDE90AAB2E
:1033F800CDE90C8905F0CCFE0028DAD141F28832FB
:1034080020460EA905F058FD0028D2D1402341F2EC
:1034180088320DF1070120468DF8073005F0B6FD1A
:103428000028C6D141F288330EA902AA20460E9779
:1034380017969FED1B7BCDE904ABCDE906898DED91
:10344800027B05F0A5FE03460028B2D1219308AA05
:1034580029931CA91C970127259600262046CDE90B
:103468002333CDE927334FF48073229341F2883315
:10347800CDE90AABCDE90C89CDE9086705F088FEEE
:1034880000289AD095E76B7B012B89D1032321462D
:10349800284685F85C3000F0ABF98AE7AFF3008086
:1034A80040000000400000008C4603462DE9F04330
:1034B800DCF8082004460868A3B0496804F1100540
:1034C80007C3BCF80C2028461A80267B677B05F0CA
:1034D800D5FCE0B9524B012E4FF00108E0612361A1
:1034E80014BF4FF480134FF40003C4E9058893FA1E
:1034F800A3F3B3FA83F34FF48079013BC4F8249023
:10350800C4E90B002362284605F04CFC38B10123BE
:103518001E4684F85C30304623B0BDE8F08366234D
:103528000B90139041F2883206A90693CDE90C90CE
:10353800CDE90E00CDE91100284605F0BDFC0028B4
:10354800E5D1992341F2883206A92846069305F069
:10355800B3FC0028DBD105231C9019906A4614930C
:103568004FF08073219014A91D9341F288339FED89
:10357800267BCDE91A90CDE91F008DED007B9FEDEC
:10358800247B28468DED027B9FED237B8DED047B0C
:1035980005F0FEFD0028BAD13146204600F09CF81F
:1035A8000028B4D12046FFF7D7FE06460028AED142
:1035B800002FB0D1EB231896002706AA14934FF4D6
:1035C800406314A928461B934FF40053CDF8689024
:1035D80017934FF440431C93A02316930623199383
:1035E8004FF08053CDE91F66219300264FF04073BA
:1035F800CDE906671D9305F043FE064600288AD0EC
:10360800464684F85C8086E7000000000100000060
:103618001000000001000000000000000000400051
:1036280000500052F0B54FF4807295B00024062384
:10363800054606930B941394CDE90C24CDE90E446A
:10364800CDE9114401F020FB02282ED005F1100429
:1036580041F2883206A9204605F02EFC30B101233C
:103668001F4685F85C30384615B0F0BD02220223AB
:1036780006A92046CDE9002310220123CDE9022323
:1036880000224FF48003CDE9042305224FF0807314
:1036980006926A460F9341F2883305F079FD074692
:1036A8000028DCD1384615B0F0BD6F7B012FCDD195
:1036B80003230646294628466C7385F85C30FFF7D5
:1036C800F3FE0028CFD0294628466C7385F85C6045
:1036D800FFF7EAFEC7E700BF70B50023A4B04FF0BC
:1036E80080724FF480750446ADF806300D93CDE92D
:1036F80010320122CDE90E53CDE91223CDE914335E
:10370800002943D0F02300F1100508AEADF80630CB
:10371800C02341F2883231462846089305F0CCFB95
:1037280028B10123184684F85C3024B070BD41F2FA
:1037380088320DF10601284605F028FC03460028CA
:10374800EFD105224FF480711E93284616924FF050
:1037580080721B9321931F9202AA9FED1F7BCDE9D4
:103768001C13CDE922338DED027B9FED1D7B41F2C9
:10377800883316A98DED047B9FED1B7B8DED067BB1
:1037880005F006FD0028CCD124B070BD00F110056D
:1037980008AE612341F2883231462846089305F085
:1037A8008BFB0028BDD141F288320DF10601284675
:1037B80005F06AFC0028B4D1BDF80630204623F095
:1037C800780343F04003ADF80630FFF72BFF0028DD
:1037D8009ED0A6E7AFF300800000000001000000C3
:1037E8001000000001000000000000000000400080
:1037F8002DE9F04100F11006A2B00446077B4173A1
:1038080030460D4605F03AFBD8B90123012FE06197
:10381800C4E90533524B236114BF4FF480134FF4AE
:10382800000393FAA3F3B3FA83F34FF48078013BD0
:10383800C4F82480C4E90B002362304605F0B2FACC
:1038480068B1022300222146204684F85C30627366
:10385800FFF72AFE0123184622B0BDE8F08166234F
:103868000B90139041F2883206A90693CDE90C809B
:10387800CDE90E00CDE91100304605F01DFB00280A
:10388800DFD1992341F2883206A93046069305F024
:1038980013FB0028D5D105231C9019906A46149370
:1038A8004FF08073219014A91D9341F288339FED46
:1038B800267BCDE91A80CDE91F008DED007B9FEDB9
:1038C800247B30468DED027B9FED237B8DED047BC1
:1038D80005F05EFC0028B4D139462046FFF7FCFE0F
:1038E8000028AED12046FFF737FD03460028A8D1AF
:1038F800002DB0D1189330460027002606AA14A937
:10390800CDF86880CDE91F334FF0805321934FF0F5
:1039180040731D93EB2314934FF440631B934FF4B0
:10392800005317934FF440431C93A0231693062388
:10393800CDE90667199305F0A3FC034600288AD051
:103948007FE700BFAFF30080000000000100000027
:10395800100000000100000000000000000040000E
:10396800005000522DE9F04F457BA3B0044688462D
:10397800012D17461E469DF8B09034D101F084F908
:10398800022841D0B7F5807F4FF480634FF00005DF
:10399800CDF81C8028BF4FF480770D934FF4807AC0
:1039A8004FF400534FF0020B4FF0807820461097E9
:1039B8000E950B951395CDF830A0CDF818B0099356
:1039C800CDF83C80CDE91155FFF72CFE074630B302
:1039D800637B002B3ED101231D4684F85C302846CA
:1039E80023B0BDE8F08F012501464573FFF75CFD64
:1039F8000028C3D00022022321462046627384F89F
:103A08005C30FFF751FDEAE7657B012DBAD103234E
:103A18000021204684F85C30FFF7EAFEDFE704F176
:103A2800100541F2883206A9284605F045FA00B388
:103A3800637B002BCFD0214620466773FFF734FD08
:103A48000028C8D021462046677384F85CB0FFF789
:103A58002BFDC0E7214620466573FFF725FD0028AA
:103A6800B9D021462046657384F85CB0FFF71CFD89
:103A7800B1E7314641F28832284605F087FA034615
:103A880038B1637B002BA6D000212046FFF7B0FE9B
:103A9800A1E700221993219305212846CDF868A0B3
:103AA800149114A9CDF87480CDE91B33CDE91F33E7
:103AB8000123CDE9002310220123CDE902230022AE
:103AC8004FF48003CDE9042341F288336A4605F0B8
:103AD8005FFB0546014670B9B9F1000F3FF47FAFAF
:103AE800657B002D3FF47BAF2046FFF781FE051E66
:103AF80018BF012573E70122637B84F85C20002B43
:103B08003FF469AFC0E700BF2DE9F04F21F07048DE
:103B1800D5B211F0FF0183461E462DED068BA9B0E4
:103B2800029573D1FF2A40F22781110A1C46A8EB9F
:103B38000607CDF8108003EB01234A1E9FEDB4ABB6
:103B48009FEDB59B9FEDB68B9846039232E002231A
:103B58004FF000094FF480750D960C934FF4806375
:103B68004FF08076584613934FF40053CDF8509099
:103B7800CDF84490CDF86490129516950F9315964C
:103B8800CDE91799FFF74EFD8246002856D09BF8DD
:103B98000D3043B1594658468BF80D90FFF784FC19
:103BA800002840F02A8101238BF85C3004F58074EA
:103BB80044455CD09BF80D30E619012B08D0012351
:103BC800594658468BF80D30FFF76EFC00286CD12B
:103BD80001F05AF802280546B9D19BF80D30012B9F
:103BE800B5D103230026594658468BF85C308BF82C
:103BF8000D60FFF759FC0028D8D0594658468BF875
:103C08000D608BF85C50FFF74FFCCFE7FF2AC1F53A
:103C1800807778D8AF4270D2A5F5807400253A46EF
:103C28000C4400954146FFF79DFEF319224608EB28
:103C3800070158460095FFF795FE23E00BF11009A0
:103C480041F288320CA9484605F036F9002837D0E9
:103C58009BF80D30002BA6D0594658468BF80DA07E
:103C6800FFF722FC00289ED08BF80DA0C7E0DDF8F6
:103C78001080039B08F5807808EB0321029B002B3A
:103C880040F0A8809BF80D304BB1002459465846A7
:103C98008BF80D40FFF708FC002840F0A3800020B7
:103CA80029B0BDEC068BBDE8F08F00235946584675
:103CB8008BF80D3002238BF85C30FFF7F5FB75E7C6
:103CC800059041F288322146484605F05FF9824660
:103CD800002856D09BF80D20002A3FF464AF059BBE
:103CE800594658468BF80D30FFF7DEFB059B002838
:103CF8003FF459AF8BF80D3081E000244146009421
:103D0800FFF730FEBEE7A2F580744FF000093A468F
:103D18003E442144CDF8009047440D0ACCB24146B8
:103D2800FFF720FE6B1E0293DDB12B02A6EB070AFC
:103D380007EB05283D4603930AEB0503294605F5DD
:103D480080754FF480725846CDF80090FFF70AFE50
:103D58004545F1D1039B07F580771E44029B07EB8D
:103D68000327002C8ED00020334622463946009087
:103D78005846FFF7F7FD85E700914146FFF7F2FD4A
:103D880080E70523484606AA1AA91A9341F2883300
:103D980020952396CDF87CA0CDF89CA0CDE921AA4A
:103DA800CDE925AA8DED06AB8DED089B8DED0A8B2F
:103DB80005F0EEF900283FF4F9AE01238BF85C30EA
:103DC8009BF80D30002B3FF4EEAE51465846FFF7F6
:103DD8000FFDE8E600201A46234600905846FFF7F4
:103DE800C1FD4FE70223594658468BF80D408BF822
:103DF8005C30FFF759FB012052E78BF80D904FF02C
:103E08000203594658468BF85C30FFF74DFBCAE66B
:103E18000000000001000000100000000100000088
:103E280000000000000040002DE9F0438C465E4C85
:103E3800A3B0DCF80820234604600868496807C373
:103E4800BCF80C2004F110001A80257B667B05F075
:103E580015F8F0B9012D4FF00107544A14BF4FF47B
:103E680080134FF40003E0612261C4E9057793FAF7
:103E7800A3F3B3FA83F304F110084FF48079013BFC
:103E8800C4F824902362C4E90B00404604F08AFF7A
:103E980038B101231D4684F85C30284623B0BDE8BC
:103EA800F08366230B90139041F2883206A906939B
:103EB800CDE90C90CDE90E00CDE91100404604F0A3
:103EC800FBFF0028E5D1992341F2883206A9404634
:103ED800069304F0F1FF0028DBD105231C9019900C
:103EE8006A4614934FF08073219014A91D9341F2F0
:103EF80088339FED277BCDE91A90CDE91F008DED22
:103F0800007B9FED257B40468DED027B9FED247B5A
:103F18008DED047B05F03CF90028BAD129462046EE
:103F2800FFF7DAFB0028B4D12046FFF715FA05465B
:103F38000028AED1002EB0D1EB234046CDF86890D2
:103F48004FF0000814934FF440634FF0000906AA9D
:103F58001B934FF4005314A9189517934FF440433B
:103F68001C93A0231693062319934FF08053219393
:103F78004FF04073CDE91F551D93CDE9068905F033
:103F88007FF90546002888D03D4684F85C7084E7B0
:103F98000000000001000000100000000100000007
:103FA8000000000000004000D00E00240050005225
:103FB8000068FFF7A9BD00BF2DE9F04F7E4E0568E8
:103FC8000E40B2422DED048BA3B0C0F0C38017465B
:103FD8004FF0000A4FF4800B9FED739B9FED748B9D
:103FE8004FF48072D7234FF4806100240C92012291
:103FF80006934FF400530D91697B099326F07043A3
:1040080091420E940F940B940793CDE91024CDE9B7
:10401800124406D0294628466A73FFF745FA002855
:1040280078D100F031FE022810D02846FFF7FAFABE
:10403800044678B36B7B002B76D10123184685F8AC
:104048005C3023B0BDEC048BBDE8F08F6B7B012B9B
:10405800EBD10323002604462946284685F85C3020
:104068006E73FFF721FA002840F093806B7B002BDA
:10407800E3D00024294628466C73FFF715FA002878
:10408800DBD00223294628466C7385F85C30FFF79D
:104098000BFAD2E705F1100941F2883206A9484621
:1040A80004F00AFF804670B16B7B002BC5D029460F
:1040B80028466C73FFF7F8F900283DD101226B7B85
:1040C80085F85C20D3E74FF4807348466A4614A904
:1040D8001A930523CDF8648014934FF08073CDF8BC
:1040E80084801D9341F28833CDE91B88CDE91F8870
:1040F8008DED009B8DED028BCDE904AB05F048F802
:10410800044668BB6B7B03B3687329462846FFF7F0
:10411800CBF9D0B10223294628466C7385F85C3068
:10412800FFF7C2F96B7BA2E70024294628466C7387
:10413800FFF7BAF90028C1D00223294628466C7334
:1041480085F85C30FFF7B0F9B8E706F58056B74256
:10415800BFF446AF002023B0BDEC048BBDE8F08F60
:1041680001226B7B85F85C20002B3FF466AF294663
:10417800284685F80D80FFF797F900289ED002237E
:104188002946284685F80D8085F85C30FFF78CF9BC
:1041980094E7294628466E7385F85C40FFF784F952
:1041A80064E700BFAFF300800000000001000000DA
:1041B800100000000100000000F0FFFF2DE9F04FA3
:1041C8008FB0414B0024026800AF9A427C63C7E974
:1041D8000944C7E90B4403D03C37BD46BDE8F08F1E
:1041E8003A4B40F609213A48EB46D3F8D42007F178
:1041F8001C0607F1220A4FF0020942F480424FF0F0
:104208000308C3F8D420D3F8D42002F48042BA605B
:10421800BA68D3F8E02042F04002C3F8E020D3F8AF
:10422800E02002F04002FA60FA68D3F8E02042F099
:104238002002C3F8E020D3F8E02002F020023A611F
:104248003A69D3F8E02042F01002C3F8E020D3F82E
:10425800E02002F010027A617A69D3F8E02042F097
:104268000202C3F8E020D3F8E030F86103F002035B
:104278003984BB61174B7B60BB697B6853F8040FBB
:104288007B6000F06DFD7B680546186800F070FDE6
:1042980016F8013B786207F124012846C7F83080F8
:1042A8007B63C7E90A9402F003FD5645E5D1002275
:1042B8005C20114601F080FC5C2001F0BBFC3C371F
:1042C800DD46BD46BDE8F08F00500052004402585C
:1042D8000A0A09092C0F0024114B02689A4200D0DF
:1042E8007047104A70B5D2F8D4300F4C23F480438D
:1042F80004F11806C2F8D43054F8040F00F030FD69
:104308000546206800F034FD0146284602F010FEFC
:10431800B442F1D15C20BDE8704001F099BC00BF07
:1043280000500052004402582C0F0024014805F0A8
:1043380033B800BFE00E0024084B1A1D981D03F186
:10434800080110B49C1C9A6603F10A02C3E91834E8
:10435800C3E91B015DF8044B5A677047D00E00246F
:1043680038B5036871B9026A00F1280500F5AC7424
:10437800012A0CBF002140218BBB1D4B5722C0F8DE
:1043880058310DE0426A00F1C00500F5E874012AD1
:104398000CBF00214021EBB1164B5A22C0F8D03196
:1043A80000232046C4E901214FF480524FF4806174
:1043B800636262614FF48042C4E903314FF4807351
:1043C800C4E906234FF40033236201F0A7FD58B176
:1043D800FFBEFEE7084B5822C0F8D031E0E7074B94
:1043E8005922C0F85831DBE7C5E92044A56338BD38
:1043F80010000240700002402800024058000240AD
:104408002DE9F043821D05468BB0031D05F10A0115
:104418000830CDE9052305F10C02AB69CDE90701A8
:104428000992002B3DD0EB69B3FA83F84FEA58188C
:104438000123022205AE0AAF4FF006090393CDE926
:10444800012356F8044B2B792278934216D02B6817
:10445800F3B1012B02D1F2B10A230493204600F0F4
:1044680087FC03462046009300F07AFC694602F078
:104478001FFCBE42E5D10BB0BDE8F08369796378D3
:104488009942E4D1B8F1000FF3D02B68002BE0D1AA
:10449800CDF81090E2E76378022B14BF0A230823B3
:1044A800DBE74FF00108C3E7534A0368934230B58E
:1044B80005468BB055D02032934252D04F4A934292
:1044C80004D02032934201D00BB030BD4C4C4D4843
:1044D800D4F8E03043F00103C4F8E030D4F8E03019
:1044E80003F001030593059BD4F8E03043F008037B
:1044F800C4F8E030D4F8E03003F008030693069BD4
:10450800D4F8E03043F04003C4F8E030D4F8E030A9
:1045180003F040030793079BD4F8F03043F40003FB
:10452800C4F8F030D4F8F03003F400030893089B83
:10453800FFF766FFD4F8D830296843F001032F4A03
:104548003048C4F8D830891AD4F8D83018BF0121B7
:1045580003F001030993099B0BB0BDE83040FFF756
:10456800FFBE274C2848D4F8E03043F00103C4F8D4
:10457800E030D4F8E03003F001030093009BD4F856
:10458800E03043F01003C4F8E030D4F8E03003F032
:1045980010030193019BD4F8E03043F04003C4F8C2
:1045A800E030D4F8E03003F040030293029BD4F8E3
:1045B800F03043F48003C4F8F030D4F8F03003F45A
:1045C80080030393039BFFF71BFFD4F8D8302968B7
:1045D80043F00103084A0C48C4F8D830891AD4F8C3
:1045E800D83018BF012103F001030493049B0BB0DA
:1045F800BDE83040FFF7B4BE04580140045C0140F8
:1046080000440258A4110024480F0024014801F076
:10461800FDBF00BFA0100024014801F0F7BF00BF94
:1046280018110024014801F0F1BF00BFFC1200245A
:10463800014801F0EBBF00BF741300241A4A036855
:10464800934210B40BD02032934208D0174A9342B9
:1046580016D02032934213D05DF8044B7047144BA8
:104668000022D3F85442C3F85822002CF4D0D3F8CF
:104678004802D3E9931223465DF8044B52081847C1
:104688000B4B0022D3F8B044C3F8B424002CE3D079
:10469800D3F8AC24D3F8A814D3F8A40452082346BA
:1046A8005DF8044B184700BF04580140045C014002
:1046B800480F0024184A0368934210B40BD02032E4
:1046C800934208D0154A934217D02032934214D00F
:1046D8005DF8044B7047124BD3E994245208C3F891
:1046E8005822002CF4D0D3E99201234601EB820131
:1046F80000EB82005DF8044B1847094BD3F8AC2453
:10470800D3F8B0445208C3F8B424002CE0D0D3F84E
:10471800A814D3F8A404E8E704580140045C014055
:10472800480F0024000000002DE9F04F0C684FF4FA
:104738001776754F87B004FB06F6012C07EB060ABF
:10474800C0F800A000F3A0800D468E464FF0000888
:10475800D44669A3D3E9002369A1D1E90001CDE9D1
:10476800022306ABCAF8508203EB8403CDE90401A7
:1047780053F810BC53F8083CCAE992880193BEE884
:104788000F00ACE80F00BEE80F00ACE80F00019B7B
:104798009EE80300CAF828B0CAF8C0308CE80300C5
:1047A8002B69042B0CD8DFE803F0737D8791030095
:1047B8004FF41773554A03FB04739A64C3F8E02057
:1047C800AA692B6A002A43D0002B4FF4177308BF3D
:1047D800022203FB047318BF0322DA6201221A6360
:1047E800EA696B6A002A40D1191E4FF4177318BF83
:1047F800012103FB0473C3E931126B69022B05D84D
:10480800434A12F80380434A52F823904FF417732F
:1048180006F128004246494603FB04740023384445
:1048280063646363E365C4F8DC30C4F8CC30C4F86F
:10483800F430C4E90F33C4E91533C4E93533C4E9A6
:104848003B33022306F01CFE002849D0FFBEFEE7DA
:10485800191E4FF4177318BF012103FB0473C3E932
:104868000B12EA696B6A002ABED0002B4FF417734B
:1048780008BF022203FB047318BF0322C3F8C42035
:104888000122C3F8C820B8E7012007B0BDE8F08FBF
:104898004FF417734FF4FA5203FB04739A64C3F886
:1048A800E0208DE74FF417734FF47A5203FB04733B
:1048B8009A64C3F8E02083E74FF417734FF4FA4281
:1048C80003FB04739A64C3F8E02079E74FF4177385
:1048D8004BF6803203FB04739A64C3F8E0206FE759
:1048E80006F1C000022342464946384406F0C8FD96
:1048F8000028CAD0FFBEFEE704580140045C01400E
:1049080024580140245C0140480F0024007701002E
:1049180030DA000834DA00080068704770B50468B7
:1049280082B015460E46C4F85032C4E99212069A6F
:10493800C4F85422226A012A9AB211D0294604F1F5
:104948002800019206F058FE636A019A012B10D0E4
:10495800294604F1C00006F04FFE002002B070BDE9
:1049680004F12800019206F0D9FE636A019A012B2E
:10497800EED1314604F1C00006F0D0FE002002B0AE
:1049880070BD00BF03681B69042B05D8044A02EBFD
:10499800830393ED000A70479FED020A704700BF3A
:1049A80040DA000800803B470368D3F85802704794
:1049B800704700BF08B500F0E3FABDE8084001F011
:1049C800C3B900BF704700BF00F0ECBA2DE9F04151
:1049D800CEB004464C2200210AA808F0AFFE2022DF
:1049E800002102A808F0AAFEBC2200211EA808F097
:1049F800A5FE022004F0EEF82368012B4FF0000317
:104A080054D0534A02250193C820D16A514B21F052
:104A18000101D162D26A02F0010201929A6942F45C
:104A280040429A619B6903F440430193019B494AC0
:104A380093699B04FCD548490224002201268B6A0D
:104A480004274FF0080823F0030323438B62052350
:104A580016900AA818934FF4803310961794199457
:104A68001597CDF86880CDE91B222122CDE91344A2
:104A7800CDE90A2304F098FD00B1FEE73F220323A5
:104A8800294602A8CDE9022300220823CDE9042300
:104A980040224023CDE9062340234FF48062CDE92C
:104AA800082305F0AFF80346B8B1FEE7294A042504
:104AB8000093F0209169264B41F44041916192693D
:104AC80002F440420092DA6A42F00102DA62DB6ADA
:104AD80003F001030093009BA9E720224FF48051C3
:104AE80025934FF440152B9280222D931EA83093C6
:104AF800269135914FF48071249234920C2233948C
:104B0800439140F2271120921022CDF884802A97F1
:104B18001F96CDE92E34CDE93B334FF48033CDE9F0
:104B280022463193002446930623CDE93E45279338
:104B38004FF48063094C2C931E94CDE9281205F09C
:104B4800A1FA00B1FEE704F06BF84EB0BDE8F081C1
:104B58000004005800480258004402580F130F037D
:104B68002DE9F04104460D4684B001264FF48077C4
:104B78004FF00008D1E9000184E8030000F0D0F903
:104B88002046FFF723FF01F08DF84FF040536846A9
:104B9800ADF800600193384B0397029301F0A0F839
:104BA8004FF04043192268468DF80F6001938DF845
:104BB8000820ADF80D708DF801608DF80A8001F0BD
:104BC8008FF8042001F07CF807F0A8FDFEF7E8F85C
:104BD80007F0EEFA2B792BBB6B799BB1BFF34F8FA4
:104BE800BFF36F8F254B0022C3F85022BFF34F8FBE
:104BF800BFF36F8F5A6942F400325A61BFF34F8F87
:104C0800BFF36F8F0022002369461D48CDE90023BA
:104C180007F018FD1A4807F077FD06F0A1FF04B069
:104C2800BDE8F081154CC4F88480BFF34F8FD4F8E9
:104C3800803043F6E071C3F3C906C3F34E334FEA3D
:104C4800431C0CEA0100334640EA8372013BC4F876
:104C580060225A1CF8D1ACF1200C1CF1200FF0D1C5
:104C6800BFF34F8F636943F480336361BFF34F8FA2
:104C7800BFF36F8FB0E700BF0E00010300ED00E047
:104C88000014002405F0EEB80B4B9B6803F15C425E
:104C9800B2F5002F0ED303F17842B2F5003F07D3E7
:104CA800064A1A44B2F5000F2CBF032002207047B1
:104CB800002070470120704700ED00E00000FC6F05
:104CC80003480023034A0449036008F0F1BC00BF0D
:104CD8000014002400000024B949000810B41A4C3C
:104CE80000221A4BD4F88810194841F47001C4F80E
:104CF80088101968174C41F0010119601A61196888
:104D08000840154918609A61DA611A629A62DA6293
:104D18001A635A639A63DA631A645A64186820F447
:104D2800802018601A6623681940B1F1005F03D229
:104D38000A4B0122C3F80821034B4FF000625DF8CB
:104D4800044B9A60704700BF00ED00E00044025831
:104D58007FEDF6EA0010005C0000FFFF00800051C4
:104D6800024B027853F82200704700BF84DA00082B
:104D7800024B427833F81200704700BF64DA00082B
:104D88008CB00A2814D8DFE800F01523313F4D5BBA
:104D98006977859306004D4BD3F8E02042F4806292
:104DA800C3F8E020D3F8E03003F480630B930B9B47
:104DB8000CB07047454BD3F8E02042F00102C3F82D
:104DC800E020D3F8E03003F001030193019BEFE703
:104DD8003E4BD3F8E02042F00202C3F8E020D3F8BB
:104DE800E03003F002030293029BE1E7374BD3F86C
:104DF800E02042F00402C3F8E020D3F8E03003F0EA
:104E080004030393039BD3E7304BD3F8E02042F02D
:104E18000802C3F8E020D3F8E03003F00803049355
:104E2800049BC5E7294BD3F8E02042F01002C3F8F1
:104E3800E020D3F8E03003F010030593059BB7E7B3
:104E4800224BD3F8E02042F02002C3F8E020D3F848
:104E5800E03003F020030693069BA9E71B4BD3F829
:104E6800E02042F04002C3F8E020D3F8E03003F03D
:104E780040030793079B9BE7144BD3F8E02042F0CD
:104E88008002C3F8E020D3F8E03003F080030893F1
:104E9800089B8DE70D4BD3F8E02042F48072C3F8ED
:104EA800E020D3F8E03003F480730993099B7FE78F
:104EB800064BD3F8E02042F40072C3F8E020D3F8A0
:104EC800E03003F400730A930A9B71E70044025828
:104ED800704700BF0F4B1B780BB90120704710B506
:104EE80004464FF47A700C4AB0FBF3F31068B0FB39
:104EF800F3F000F0C1FE0F2C00D808B1012010BD5E
:104F0800002221464FF0FF3000F056FE034B0020F0
:104F18001C6010BD540000244C00002458000024DC
:104F280038B50320124D00F035FE124C04F0CAFDCE
:104F3800114A12499369C3F30323CB5C03F01F039F
:104F480020FA03F30F202B60926902F00F028A5CAB
:104F580002F01F02D3402360FFF7BCFF10B1012409
:104F6800204638BD0446FFF7B3FF204638BD00BFD2
:104F78004C000024500000240044025854DA000871
:104F8800034A044B11681B780B441360704700BF39
:104F98000414002454000024014B1868704700BF13
:104FA8000414002438B50446FFF7F6FF0546631CD1
:104FB80002D0044B1B781C44FFF7EEFF431BA342AF
:104FC800FAD338BD54000024014B1868000C704710
:104FD8000010005C704700BF806B08B5FFF7FAFF50
:104FE80008BD00BF836B5A6D12F0500F5A6D10B593
:104FF8001DD1196842F400725A650A6812F0080F48
:10500800CA681BD012F4406F0DD1CA6894040AD440
:105018005A6D22F480725A655A6DD10403D45A6DC0
:1050280042F001025A651846FDF72CFB10BDD20666
:105038000AD4DB6CBDE81040DB6C18479007E7D05A
:105048001846FDF71FFBF1E71846FDF7BFFB10BD3B
:10505800806B08B5436D43F040034365836D43F0AF
:1050680004038365FDF7B2FB08BD00BFF0B500225D
:1050780083B0019290F85020012A00F01C81034669
:1050880001201A6883F850009468640700F18A8048
:105098000C68C4F31305002D40F08F80C4F38464BA
:1050A800A0404D684FF01F0ED6694FEA951C30435B
:1050B8000CF00C0CD06105F01F0002F130058440A3
:1050C8000EFA00FE5CF8050020EA0E0004434CF8D6
:1050D8000540906840076ED4956815F0080547D1DB
:1050E8000C68072002F11406B94F4FEAD45CC4F3E8
:1050F80004540CF0040C00FA04FE886800FA04F466
:105108005CF8060020EA0E0020434CF806003868D8
:1051180000F07040B0F1805F00F0C580D068D668BC
:10512800C70600F1E880C6F382064869760000FAEF
:1051380006F60F69042F00F0C18002F160040868C8
:1051480054F827C000F0F8400CF0004C40EA0C007E
:10515800304344F82700487E0E69012854F8260099
:1051680008BF4FF0004520F00040054344F82650A2
:105178009068C40714D4CE68086806F01807954CE0
:10518800D2F8C050FC40C0F31307044025EA0705D5
:105198002C43C2F8C040904CA64246D0002816DBEB
:1051A800002003E05A6D42F020025A65002283F87D
:1051B800502003B0F0BD9068DAE794FAA4F5B5FA88
:1051C80085F5C4F3846405F01F05A84069E78349A1
:1051D8008A4200F0B68001F580718A4200F0B18001
:1051E8007F4D804CA968A46801F0E076E44304F0A0
:1051F8000104002C00F0B4807B4CA04200F0FC803D
:105208007A4CA04200F01A81794CA042C8D14902D8
:10521800C6D474498A42C3D1AA68002022F0E07239
:10522800324342F48002AA60C0E7002F6AD090FAA5
:10523800A0F4B4FA84F4013404F01F04092C00F239
:10524800A48090FAA0F4B4FA84F490FAA0F5B5FA20
:1052580085F5013401260135A40605F01F0504F083
:10526800F84406FA05F52C4390FAA0F0B0FA80F05D
:10527800304400F01F0000EB400000052043C60D3D
:1052880002F11405C0F30450072406F0040604FADA
:1052980000F7745924EA07048F6807FA00F02043DE
:1052A800705108687AE7D6684869C6F382067600BE
:1052B80000FA06F63DE7022003B0F0BD106E0C6858
:1052C80000F0F840A506B0EB846F30D0506E00F0C7
:1052D800F840854226D0906E00F0F84085422BD0E9
:1052E800D06E00F0F84085427FF442AFD06E20F0D7
:1052F8000040D0663CE77608486906F0080600FAE0
:1053080006F616E7800E441C04F01F06092E2DD859
:10531800A406012004F0F844B040044306EB46001C
:105328000005ABE7506E20F000405066D3E7106EE2
:1053380020F000401066C9E7906E20F000409066AB
:10534800CEE7264C2B4D04F58074A96854F8F86C08
:10535800A468344301F0E076E44304F0010448E72C
:105368005A6D012042F020025A651FE706EB4600FD
:10537800A50601241E3805F0F84504FA06F60005CE
:10538800354340F00070284379E790FAA0F5B5FA64
:1053980085F590FAA0F4B4FA84F4013501260134B5
:1053A800AD0604F01F0405F0F84506FA04F4254399
:1053B80090FAA0F4B4FA84F4344404F01F0404EB23
:1053C8004404A4F11E00000540F00070DBE700BFB4
:1053D8000010005CFFFF0F000000FF4700200240A4
:1053E8000063025800600258000084CB000052C7D6
:1053F8000000B8CF0023024008023FF5D1AE17499C
:105408008A427FF4CDAE164AA9681268154821F081
:10541800E07192093143A0FB020241F400019209B4
:10542800A96052000192019A002A3FF4B9AE019A8C
:10543800013A0192019A002AF9D1B1E611F080707F
:105448007FF4AEAE05498A427FF4AAAEAA6822F07C
:10545800E072324342F08072AA60A7E60060025808
:105468004C000024632D3E0503689A68D20701D5D5
:10547800002070479968214A114270B5044608D047
:10548800636D012043F010036365A36D0343A365B7
:1054980070BD99681A4A0A4042F001029A60FFF703
:1054A8007BFD2368174A054693421ED002F5807299
:1054B80093421AD0144A9268114E0AE09A68324010
:1054C80042F001029A60FFF767FD401B0228D7D817
:1054D80023681A68D2070FD49A68D107EED5FFF768
:1054E8005BFD401B0228F3D9CAE7084A9268D00638
:1054F800E2D0074A9342DFD1002070BD3F00008010
:10550800C0FFFF7F002002400063025800230240D2
:10551800002102402DE9F0413A4D044600680F464B
:105528001646A84219D0384B984216D0374DAB686A
:105538008068420716D494F85020012A12D003F04C
:105548001F080122B8F1090F84F850200DD9002353
:10555800012084F85030BDE8F0812D4DAB6880689B
:105568004207E8D50220BDE8F08140F2212323FA62
:1055780008F3DB4313EA0205E9D12046FFF774FF7D
:10558800002839D1626D234B2168134043F480739E
:105598006365B8F1000F02D01B4B994203D0636DCD
:1055A80023F480136365636D13F4805328D0A36DCF
:1055B80023F00603A365E06C3346174D3A464031A5
:1055C800C563164D0564164DC5641C2541F8405C3D
:1055D800002584F8505051F83C5C45F0100541F81E
:1055E8003C5C00F059FE22680E4B91680B4043F07A
:1055F80004039360BDE8F08184F85050BDE8F08161
:10560800A365D8E700200240002102400063025849
:1056180000230240FEF0FFFFED4F0008E14F0008B5
:1056280059500008C0FFFF7F38B503689A68910792
:1056380002D59B68002038BD9A68D20723D59A689E
:10564800044602F00D02012A08D0636D012043F0E0
:1056580010036365A36D0343A36538BD98680321F0
:105668000A4A024042F002029A601960FFF794FC6D
:10567800054604E0FFF790FC401B0228E5D82368A4
:105688009B68DB07F6D4002038BD00BFC0FFFF7F52
:1056980038B5574A04460368934226D002F580720B
:1056A800934222D0534B9B6813F4403F22D004F01E
:1056B800C3FB63680546B3F5003F00F08880B3F587
:1056C800403F70D0B3F5803F00F08180FFF77CFC4D
:1056D80041F2030398422DD8474B9D425DD9226879
:1056E800936843F48073936038BD444B9B6813F40C
:1056F800403FDCD14FF4002005F03CFC63680546D0
:10570800B3F5101F6DD008D8B3F5E01F55D01AD9DE
:10571800B3F5001FDAD14509D8E7B3F5201F4AD001
:10572800B3F5301FD2D1FFF74FFC41F20303984283
:1057380033D92D0A324B9D421DD82268936823F431
:105748004073936038BDB3F5801F06D00AD9B3F50E
:10575800A01F02D0B3F5C01FB8D19B0C5B00B5FBEE
:10576800F3F5B3E7B3F5002FF7D023F40022B2F531
:10577800802FF2D0AAE7234B234A2B4493421ED909
:10578800224B234A2B449342226893682BD823F454
:10579800407343F40073936038BD2268936823F420
:1057A8008073936038BD8508FFF70EFC41F2030350
:1057B8009842BFD890E7C50988E7050986E72268B7
:1057C800936823F4407343F48073936038BD1B0CD3
:1057D800B5FBF3F5FFF7F8FB41F203039842A9D8AC
:1057E8007AE7850972E743F44073936038BD00BFD8
:1057F8000020024000630258002D310100230240BE
:10580800105E5F00EFA1A0FF0F5E5F00DF4341FF66
:105818001FBCBE0030B5002383B00193002800F000
:10582800D080456D0446002D00F0BA802268936848
:105838009B0003D59168714B0B4093609368DD0022
:1058480015D46F4B90686F491B6801406E489B09DF
:1058580041F08051A0FB030391609B090193019BD8
:105868002BB1019B013B0193019B002BF9D193685C
:10587800D80024D4636D012543F010036365A36D3C
:105888002B43A365936813F0040F636D1DD1D906EC
:105898001BD4636D23F4817343F00203636593683B
:1058A800DB0728D4594B9A4217D003F580739A42E4
:1058B80013D0574B9B68D9071DD4564A15E09368F7
:1058C800002513F0040F636DE1D0636D012543F0EB
:1058D80010032846636503B030BD4C4A4E4B9268AE
:1058E8009B681343D80706D44C4A9368616823F42D
:1058F8007C130B439360FFF767FB41F20303A16836
:105908009842237F52D894F815C01A04206B42EAB3
:105918004C3202430A43012B03D1236A013B42EA7A
:105928004342636A23B103F47873A16A0B431A43B1
:1059380023683B49D86801400A43DA609A6812F044
:10594800040F9A681CD112071AD4D868354A217DE9
:10595800024042EA8132E16A0A43DA6094F8382068
:10596800012A3AD01A6922F001021A611A692046FE
:10597800616B22F070420A431A61FFF789FE2368BF
:10598800E268012A21D01A6B22F00F021A63636DB4
:10599800284623F0030343F00103636503B030BDD9
:1059A800FCF71EFEA56584F850503FE71029AAD1E0
:1059B800617D1A0442EA4132216B0A4342F01C021B
:1059C800A9E70125284603B030BD196BA26921F06B
:1059D8000F01013A0A431A63D9E7D4E9102118697B
:1059E8000A43114901400A43A16C0A43E16B42EAA8
:1059F800014242F001021A61B8E700BFC0FFFF5F31
:105A08004C000024C0FFFF6F632D3E0500200240BC
:105A1800006002580063025800210240002302403F
:105A280003C0F0FFFCBFFFFF1EF800FCF0B5002329
:105A380083B0019390F85030012B40D001230446E5
:105A48000E46154680F85030FFF7EEFDE8B9676D51
:105A580005F080421B4B06F480311B4D3B401B4F29
:105A680043F00203636523689E68354015430D4380
:105A780045F000459D609A68002A0FDB636D23F0AE
:105A8800030343F00103636503E0636D43F0100310
:105A98006365002384F8503003B0F0BD019A0132E9
:105AA8000192019ABA42E6D9636D0022012023F0DF
:105AB800120384F8502043F010036365ECE70220DA
:105AC80003B0F0BDFDEEFFFFC0FFFE3FFF955A5546
